:0200000460009A
:100000004643464200040156000000000303030378
:1000100000000000000000000000000000000000E0
:1000200000000000000000000000000000000000D0
:1000300000000000000000000000000000000000C0
:100040005900000000080801000000000000000046
:10005000000000040000000000000000000000009C
:100060000000000000000000000000000000000090
:1000700000000000000000000F0000000F00010061
:10008000A087188B108F04A700000000000000005C
:10009000008700870087AA87008705870087708709
:1000A000A087188B108F0BB704A70000000000007A
:1000B000008700870087AA87008705870087AA87AF
:1000C000008700870087558700870287008755874C
:1000D000008700870087AA870087058700878087B9
:1000E000008700870087AA87008705870087AA877F
:1000F000008700870087558700870287008755871C
:100100000087188B108F00873087000000000000E8
:10011000008700870087AA87008705870087A08758
:100120000087188B108F80A30000000000000000E3
:10013000008700870087AA87008705870087808758
:10014000008700870087AA87008705870087AA871E
:1001500000870087008755870087028700875587BB
:10016000008700870087AA87008705870087108798
:10017000000000000000000000000000000000007F
:10018000000000000201000002030000040500005E
:1001900002090000040B0000000000000000000045
:1001A000000000000000000000000000000000004F
:1001B000000000000000000000000000000000003F
:1001C0000002000000000400080000000100000020
:1001D000000000000000000000000000000000001F
:1001E000000000000000000000000000000000000F
:1001F00000000000000000000000000000000000FF
:10100000D10020410020006000000000000000002E
:1010100020100060001000600000000000000000D0
:1010200000000060000080000000000000000000E0
:1010300000000000000000000000000000000000B0
:10200000A03E0120B19D06604B0B0160A7A10160BD
:10201000172101609F240160AF30016000000000C3
:102020000000000000000000000000009F3501607B
:10203000B348016000000000F5A00160E17C05608C
:10204000754F07607D4F0760854F07608D4F0760B4
:10205000954F07609D4F0760A54F0760AD4F076024
:10206000B54F0760BD4F0760C54F0760CD4F076094
:10207000D54F0760DD4F0760E54F0760ED4F076004
:10208000F54F0760E5510760E5510760E5510760CE
:10209000C34E0560CF4E0560DB4E0560FD4F076007
:1020A000055007600D500760155007601D50076010
:1020B000255007602D500760355007603D50076080
:1020C000455007604D500760555007605D500760F0
:1020D000655007606D500760E5510760E551076086
:1020E000E5510760E5510760E5510760E55107607C
:1020F000E5510760E5510760E5510760E55107606C
:10210000E5510760E5510760E5510760E55107605B
:10211000E5510760E5510760E5510760E55107604B
:10212000755007607D500760855007608D500760CF
:1021300095500760E5510760E5510760E55107607C
:10214000E5510760E5510760E5510760E55107601B
:10215000E5510760E5510760E5510760E55107600B
:10216000E5510760E5510760E5510760E5510760FB
:10217000E5510760E5510760E5510760E5510760EB
:10218000CD2D0560F12D0560152E0560392E0560F9
:102190005D2E0560812E0560A52E0560C92E0560A7
:1021A000ED2E0560E55107609D500760A550076062
:1021B000E5510760E5510760E5510760E5510760AB
:1021C000E5510760E5510760E5510760E55107609B
:1021D000E5510760E5510760E5510760E55107608B
:1021E000E5510760E5510760E5510760E55107607B
:1021F000AD500760E5510760B5500760BD500760FE
:10220000E5510760E5510760C550076021F00360A4
:10221000E5510760E5510760E5510760E55107604A
:10222000E5510760E5510760E5510760E55107603A
:10223000E5510760E5510760E5510760E55107602A
:10224000E5510760E5510760E5510760E55107601A
:10225000E5510760E5510760E5510760E55107600A
:10226000E5510760E5510760E5510760E5510760FA
:10227000E5510760E5510760E5510760E5510760EA
:10228000E5510760E5510760E5510760E5510760DA
:10229000E5510760E5510760E5510760E5510760CA
:1022A000E5510760E5510760E5510760E5510760BA
:1022B000E5510760E5510760E5510760E5510760AA
:1022C000E5510760E5510760E5510760E55107609A
:1022D000E5510760E5510760E5510760E55107608A
:1022E000E5510760E5510760E5510760E55107607A
:1022F000E5510760E5510760E5510760E55107606A
:10230000E5510760E5510760E5510760E551076059
:10231000E5510760E5510760E5510760E551076049
:10232000E5510760E5510760E5510760E551076039
:10233000E5510760E5510760E5510760E551076029
:10234000E5510760E5510760E5510760E551076019
:10235000E5510760E5510760E5510760E551076009
:10236000E5510760E5510760E5510760E5510760F9
:10237000E5510760E5510760E5510760E5510760E9
:10238000E5510760E5510760E5510760E5510760D9
:10239000E5510760E5510760E5510760E5510760C9
:1023A000E5510760E5510760E5510760E5510760B9
:1023B000E5510760E5510760E5510760E5510760A9
:1023C000E5510760E5510760E5510760E551076099
:1023D000E5510760E5510760E5510760E551076089
:1023E000E5510760E5510760E5510760E551076079
:1023F000E5510760E5510760E5510760FFFFFFFF0A
:10240000400050F0010070477047C268002A06D1B2
:10241000002904D011F0030F01D10A68C26070478F
:1024200070B504000D001600A068002809D1310025
:10243000DFF8200C03F09EFDA06029002000FFF7CC
:10244000E4FF70BD01000869421C0A617047818B7E
:10245000491C8183416A898C828B914202D2818B93
:10246000426A9184704710B50400A08B002808D1FF
:10247000B522DFF8E41BDFF8E40B03F027FFAFF32E
:102480000080A08B401EA08310BDF8B504000D0095
:1024900016001F003B00226831002800C0B203F084
:1024A00027FF0100606A486000208860206A0028D9
:1024B00001D1216206E0226A9068002801D092686A
:1024C000FAE791600800F2BD2DE9F04705000C0025
:1024D00016001F00002C19D014F0030F16D120791C
:1024E00000F0FF00F6B2B04210D1A046D8F8049038
:1024F0005FEA19295FF0000ACA450CDA08EB8A0086
:1025000081682800B8471AF1010AF5E7002C02D0CB
:1025100021002800B847BDE8F087F8B504000D0099
:102520006E68360A0027B74211DA05EB870081682A
:10253000200002F0B2FEA068002806D005EB87005C
:1025400081682000FFF761FF01E07F1CEBE7F1BD30
:1025500038B504000D006079012804D12900606AB3
:1025600003F0CAFF06E02B00626ADFF8F41AA06AE3
:1025700003F0F4FF31BD38B504000D006079012887
:1025800004D12900606A03F0CAFF06E02B00626AEA
:10259000DFF8D01AA06A03F0E1FF31BD38B50400BE
:1025A0000D006079012804D12900606A03F0B7FFAB
:1025B00006E02B00626ADFF8B01AA06A03F0CEFFD3
:1025C00031BD2DE9F84306000D0014000027002D51
:1025D00004D02900300002F060FE7F1C002C12D0D5
:1025E000D4F804805FEA18285FF00009C14508DAD2
:1025F00004EB89008168300002F04FFE19F10109F7
:10260000F4E718EB07073900B06A04F014FEBDE8E0
:10261000F18338B504000D002A0000212000FFF7E7
:10262000D0FF31BD2DE9F84F83460D0014001E0088
:10263000280005F059F8002808D0E4B2002C04D195
:102640003100DBF8280004F0BFFCB3E0280005F0FF
:1026500056F8002808D0E4B2012C04D13100DBF890
:10266000280004F0B1FCA5E0002D00F0988015F0E2
:10267000030F40F094802F00D7F804805FEA1828F9
:10268000387900F0FF001C283DD1E4B2002C29D19C
:102690005846FFF7D7FE81465FF0000AB8F1010007
:1026A000824510DAE4B2002C01D1012200E00022C0
:1026B0004B46D2B207EB8A0081685846FFF7B2FF5B
:1026C0001AF1010AEAE733002200D2B207EB8800D0
:1026D00041685846FFF7A6FF4946DBF8280004F09A
:1026E00044FA0FE05FF00009C1450BDA3300220025
:1026F000D2B207EB890081685846FFF793FF19F1C2
:102700000109F1E756E0387900F0FF001D2803D1F8
:10271000E4B2002CE6D0BBE7387900F0FF001E28B9
:102720000CD1E4B2002C01D1012200E000223300E0
:10273000D2B2B9685846FFF775FF3BE0387900F030
:10274000FF002A282BD1B868002808D1E4B2002C59
:1027500024D13100DBF8280004F036FC1EE0B86814
:10276000002809D0387A10F0030F05D1B868007935
:1027700000F0FF008C2809D040F24B12DFF8D81887
:10278000DFF8C00B03F0A2FDAFF30080E4B2012C30
:1027900004D13100DBF8280004F016FC0AE029001F
:1027A000584602F07AFD32002100C9B2DBF8280059
:1027B00004F017FCBDE8F18F2DE9F84304000D008B
:1027C0001600F6B2022E03D0A968200002F065FDC3
:1027D000E868002800F08680287B10F0030F40F0A6
:1027E0008180EF68387900F0FF0088282DD1D7F874
:1027F00004805FEA1828F6B2022E0ED05FF00009BE
:10280000B8F10100814508DA07EB890081682000F2
:1028100002F043FD19F10109F2E707EB8800406877
:10282000002805D007EB8800007910F0030F09D0CD
:1028300040F26B12DFF82018DFF8200803F046FDA5
:10284000AFF3008007EB88004768387900F0FF009D
:102850002E281BD1F6B2022E06D1A06A04F0A9FBE5
:10286000A06A04F025FB10E0B968200002F015FD15
:10287000F6B2012E06D1A06A04F079FBA06A04F03A
:10288000B9FA02E0A06A04F013FB31E0387900F0F5
:10289000FF002F2826D1387A10F00F00022809D027
:1028A00040F27D12DFF8B017DFF8B00703F00EFD3D
:1028B000AFF30080F6B2012E08D1A06A04F04CFB01
:1028C000B9680909A06A04F066FA0AE0F6B2022EB5
:1028D00002D1A06A04F062FBB9680909A06A04F099
:1028E000D9FA05E0DFF8382C29002000FFF798FD21
:1028F000BDE8F1832DE9F04707000C0090469946AA
:10290000002C01D1002500E001255FF0FF36002DED
:1029100010D0002C0ED014F0030F0BD1207900F052
:10292000FF00202806D142460021B86A04F008FDC5
:10293000002006005FF0000AC24529D259F82A009B
:10294000002822D019F82A0010F0030F1DD159F8E1
:102950002A00007900F0FF00202816D116F1010F9F
:102960000BD1B8EB0A02521E1AEB0501B86A04F04B
:10297000E7FC1AEB0500060007E0DFF8E82B59F842
:102980002A103800FFF74CFD32E01AF1010AD3E7B4
:1029900016F1010F04D118EB0501B86A04F0C3FC6D
:1029A000002D0CD0002E05D10022A168380000F0C7
:1029B00021F804E000222100380000F01BF85FF04D
:1029C000000AC24514D21AEB0500B04207D100221A
:1029D00059F82A008168380000F00CF805E0002260
:1029E00059F82A10380000F005F81AF1010AE8E752
:1029F000BDE8F0872DE9F84306000D001400002D16
:102A000009D14FF4DC72DFF85016DFF8500603F0FE
:102A10005DFCAFF3008015F0030F16D015F00F002A
:102A2000022811D12F003F09E4B22000002801D074
:102A3000022804D139003000FFF79DFD03E0390082
:102A40003000FFF785FDB2E0ABE02F00387900F0F1
:102A5000FF0006280FD0292806D02A2818D02B28B6
:102A600036D0972807D056E02200D2B23900300085
:102A7000FFF7A2FE50E0E4B2002C40F0928017F184
:102A800008037A68120A00213000FFF733FF43E0A1
:102A9000B868002800F08580B868002809D0387A26
:102AA00010F0030F05D1B868007900F0FF008C2802
:102AB00009D040F2E112DFF8A015DFF8A00503F01D
:102AC00005FCAFF30080E4B2002C6AD1BF6824E0BB
:102AD000E4B2002C65D1B868002806D1002300229A
:102AE00000213000FFF706FF14E0B86800280BD083
:102AF000387A10F0030F07D1B868007900F0FF00B2
:102B00008C2801D1BF6808E000230022B96830009A
:102B1000FFF7F0FE00E044E049E0F868002838D014
:102B2000387B10F0030F34D1D7F80C8098F80400EC
:102B300000F0FF008F2814D1D8F80800002809D031
:102B400040F20622DFF81015DFF8100503F0BEFB97
:102B5000AFF3008000230022B9683000FFF7CAFEFF
:102B60001EE098F8040000F0FF0090280BD1D8F880
:102B700004905FEA192918F108034A46B968300041
:102B8000FFF7B8FE0CE098F8040000F0FF00A7285B
:102B900007D017F10803022200213000FFF7AAFE38
:102BA00005E0DFF87C2929003000FFF739FCBDE89B
:102BB000F1832DE9F74F05000E001F000298002851
:102BC00009D54FF40972DFF89014DFF8780703F0A5
:102BD0007DFBAFF30080002F09D540F22522DFF8FE
:102BE0007814DFF8600703F071FBAFF30080012F6A
:102BF00003DB307E50F0080030760298F08300242A
:102C0000686A0078002831D05FF00008686A008D9B
:102C100080452BDA686AC06A00EBC80999F80000A1
:102C2000032803D099F8000004281CD15FF0000AA3
:102C3000308D824517DAF06A00EBCA0B9BF8000072
:102C400004280DD1D9F80400DBF80410884207D11C
:102C5000B9F80220D9F80410A86A04F05CF8641CE2
:102C60001AF1010AE4E718F10108CFE7002C06D1B8
:102C70003B00029A3100A86A04F071FB06E000975D
:102C8000029B22003100A86A04F087FBBDE8F78FA1
:102C90002DE9F04106000C0014F00F00022802D1CB
:102CA0005FF0FF3711E0002C02D014F0030F09D0C1
:102CB00040F24E22DFF8A013DFF8A00303F006FB7A
:102CC000AFF30080277907F0FF07432F01D04B2F88
:102CD00002D10120B07159E0442F57D04C2F55D06C
:102CE00017F1010F02D1A046002514E0422F03D1B5
:102CF000D4F8088025690EE04A2F09D040F27322EB
:102D0000DFF85413DFF8540303F0E0FAAFF3008068
:102D1000D4F80880E568002D0CD1B079002835D1B1
:102D2000F08A002832D0DFF8B42C21003000FFF701
:102D300077FB2BE0B079002821D0B08A401CB0820C
:102D4000B08A01280ED1F08A002804D0F18AB06A36
:102D500004F071FA02E0B06A03F0D2FF0021B06A19
:102D600004F085FA2900300002F097FA414609097B
:102D7000B06A03F0ABFFB06A04F086FA06E0F08AAE
:102D8000401CF0822900300002F087FABDE8F08193
:102D90002DE9F04704000D0016001F00A07900285F
:102DA00002D05FF0010801E05FF00008B4F8149071
:102DB000B4F816A00020A0710020A0820020E082BC
:102DC000DFF81C3C3A00D2B231002000FFF77CFB58
:102DD000A068002818D1E08A002809D0A08A00281D
:102DE00006D1E18AA06A04F026FAA06A03F088FFFF
:102DF000A38AE28A29002000FFF7DBFE84F8068020
:102E0000A4F81490A4F816A0BDE8F087F8B5040063
:102E10000D0016006079012806D133002A00072131
:102E20002000FFF732FBA861AF694023EA68390050
:102E30002000FFF7ADFF788AF2BD2DE9F0410500D3
:102E40000E0017006879012806D13B0032000121ED
:102E50002800FFF71AFB7061A86A03F0C0FFD6F8DC
:102E600014800023002241462800FFF7A2FEB8F894
:102E70001210A86A03F02AFFF468002C09D014F09D
:102E8000030F06D1207900F0FF009E2801D1002019
:102E90000400022300222100280001F0D3FDB8F82D
:102EA0001200BDE8F0812DE9F04104000D0016008C
:102EB0001F0030680009B0F5A37F01D000201AE0A0
:102EC000022D07D0DFF81C2B31682000FFF7A8FA8D
:102ED000012010E0D6F804805FEA1818B8F1AD0FB1
:102EE00002D10120386005E0DFF8F82A716820007F
:102EF000FFF796FA0120BDE8F0812DE9F04F85B08B
:102F000004000D0001AA3D2115F1080004F034FC75
:102F10000600606A407E029000275FF00008B0451E
:102F20005EDA019850F8280000280DD0019810F8BA
:102F3000280010F0030F07D1019850F828000079FD
:102F400000F0FF003C2808D04FF449724249DFF8F6
:102F5000F40303F0BBF9AFF30080019850F8289018
:102F60006A46682119F1080004F006FC824602ABAB
:102F7000009A51462000FFF796FF002801D07F1CE1
:102F80002BE000980168200002F087F95FF0010B48
:102F9000D34519DA009810F82B0010F00F00022822
:102FA00008D040F236322C49DFF8980303F08EF94E
:102FB000AFF30080009850F82B100909A06A03F0C5
:102FC000EAFE1BF1010BE3E7D9F80C00002804D05E
:102FD000D9F80C10200002F060F918F101089EE702
:102FE000D5F80C805FF0000998F8040000F0FF00AD
:102FF000032806D1029A41462000FFF707FF8246C8
:1030000013E098F8040000F0FF00352807D04FF4D3
:1030100054721149CB4803F059F9AFF30080029A7A
:1030200041462000FFF709FF82465FF00009F01BD0
:10303000814508DA002300220121A06A04F013FA76
:1030400019F10109F3E751462000FFF794FA05B0A2
:10305000BDE8F08FC05E0660B8900660AC350760D2
:1030600084FE066094FE0660A4FE066070B504004F
:103070000D00606A427E29002000FFF7C7FE0600AF
:1030800031002000FFF777FA70BD2DE9F843050005
:103090000C0014F00F00022805D1210009092800B6
:1030A000FFF77CFAD5E0002C6BD014F0030F68D149
:1030B000207900F0FF00292863D12600B16828009C
:1030C00002F0EBF8F06800285AD0307B10F0030FC4
:1030D00056D1F768387900F0FF00882829D1D7F851
:1030E00004805FEA18285FF00009B8F1010081450B
:1030F00008DA07EB89008168280002F0CEF819F1A0
:103100000109F2E707EB88004068002805D007EBCB
:103110008800007910F0030F08D040F27232DFF817
:10312000F81A884803F0D2F8AFF3008007EB880064
:103130004768387900F0FF002E2807D1B9682800C9
:1031400002F0ABF8A86A03F0FBFE82E0387900F0E9
:10315000FF002F2813D1387A10F00F00022808D072
:1031600040F27932DFF8B01A764803F0AFF8AFF3E7
:103170000080B9680909A86A03F0D4FE69E069E033
:1031800068E0002C64D014F0030F61D1207900F0C6
:10319000FF002A285CD1A468002C5BD0002C07D04B
:1031A00014F0030F04D1207900F0FF008C2808D020
:1031B00040F28732DFF8601A624803F087F8AFF315
:1031C00000802600F068002839D0307B10F0030F13
:1031D00035D1F768387900F0FF008F2810D1B86832
:1031E000002808D040F28F32DFF82C1A554803F03F
:1031F0006DF8AFF30080B1682800FFF746FF28E0C4
:10320000387900F0FF00902814D1D7F804805FEAE5
:103210001828B1682800FFF738FF5FF00009C145A2
:1032200017DA07EB890081682800FFF72EFF19F1F4
:103230000109F4E7387900F0FF00A7280AD0B16847
:103240002800FFF722FFF1682800FFF71EFF00E0CB
:1032500000E005E0DFF8C42921002800FFF7E0F8CE
:10326000BDE8F18338B504000D00DFF8B4399722CA
:10327000A9682000FFF728F931BD38B504000D001A
:10328000208B4FF6FF71884205D1DFF8982929007D
:103290002000FFF7C5F8A08BE18B884208D24FF4DD
:1032A0006E72DFF87419274803F010F8AFF300804E
:1032B000A28BE08B121A218BA06A03F0C2FE31BDF3
:1032C00038B504000D00608B4FF6FF71884205D1C0
:1032D000DFF8542929002000FFF7A2F8A08BE18B2A
:1032E000884208D24FF47072DFF82C19154802F0AA
:1032F000EDFFAFF30080A28BE08B121A618BA06A06
:1033000003F09FFE31BD38B504000D00606A0078FF
:10331000072806D0DFF8F02C29002000FFF780F8FE
:103320000EE0A868002804D10E21A06A03F081FCF9
:1033300003E0A968200001F0B0FFA06A04F0B0F833
:1033400031BD0000AC35076038B504000D00A96838
:10335000200001F0A2FFA06A03F014FE31BD38B5D1
:1033600004000D00A868002804D10021A06A04F020
:10337000A8F822E0A868002817D0287A10F0030FD8
:1033800013D1A868007900F0FF005A280DD1AD686C
:10339000A968200001F081FFE968200001F07DFFAD
:1033A0000221A06A04F08DF807E0A968200001F06E
:1033B00074FF0121A06A04F084F831BD2DE9F44FB7
:1033C00084B006000C000025002C10D014F0030F70
:1033D0000DD1207900F0FF00642808D12000C168D9
:1033E0000909049A116081680C0001210D00002C6C
:1033F00007D10120049908600121B06A03F0F2FBB3
:103400008AE014F00F0002280BD127003F09EDB22B
:10341000002D01D1049807603900B06A03F0E2FB87
:103420007AE0002C07D014F0030F04D1207900F0CB
:10343000FF00682809D040F20C42DFF8DC17DFF803
:103440001C0D02F043FFAFF300800094EDB2002D9D
:1034500004D10098806800090499086000984768C2
:103460003F0A781E01905FF00008B8450FDADDF8DA
:103470000490009800EB88008068000905F07DF852
:1034800010EB0909CDF8049018F10108EDE7019857
:1034900005F0F4F80290DDF808B05FF00008B845D8
:1034A0001CDAB8F1010F04DB2E208BF800001BF1B1
:1034B000010B03A9009800EB88008068000905F063
:1034C0006AF88146DDF80CA052464946584605F098
:1034D00025F90398834418F10108E0E7019902985F
:1034E00004F0A4FF80460298FEF78EFF4146B06AC2
:1034F00003F078FBEDB2002D0ED05FF00109B94565
:103500000ADA009800EB890081680909B06A03F0C3
:1035100042FC19F10109F2E705B0BDE8F08F0000A7
:1035200074C3066038B504000D000021A06A03F0E2
:10353000B3FB0E21A06A03F07CFB6A462900200041
:10354000FFF73CFF00992000FFF715F831BD38B5B3
:1035500004000D00DFF8E43C6722A9682000FEF7B4
:10356000B3FF31BD90C306602DE9F84F86B005006A
:103570000E00B468002714F00F000E2809D0002CAC
:103580000BD014F0030F08D1207900F0FF00612860
:1035900003D10194002004001EE0002C1BD014F085
:1035A000030F18D1207900F0FF005E2813D1A04648
:1035B000D8F808000190D8F80C000400002C0BD1BA
:1035C00040F24B42DFF85016DFF8900B02F07EFE1F
:1035D000AFF3008000E013E002AA612101A804F02B
:1035E000CBF8002181420BDA029A52F8212040F2F6
:1035F000AE439A4201D17F1C00E0FF1C491CF1E759
:10360000F06840F21E31884214D13900A86A03F0F4
:1036100043FB3821A86A03F059FB0121A86A03F093
:103620000AFE04AA21002800FFF7C8FEA86A03F0DA
:10363000F4FA85E03900A86A03F02EFB6A46662199
:1036400016F10C0004F098F880465FF00009C145BF
:103650002CDA009850F8290000280DD0009810F8B6
:10366000290010F0030F07D1009850F829000079C5
:1036700000F0FF00632809D040F27342DFF898158C
:10368000DFF8D80A02F022FEAFF30080009850F86D
:10369000290003900398D0F808B05FEA1B1B594635
:1036A000A86A03F013FB19F10109D0E74146A86AA3
:1036B00003F0C1FD05AA21002800FFF77FFE5FF09F
:1036C0000009C14539DA009850F8290000280DD0CA
:1036D000009810F8290010F0030F07D1009850F857
:1036E0002900007900F0FF00632809D040F27E42F3
:1036F000DFF82415DFF8640A02F0E8FDAFF300807C
:10370000009850F829A0DAF808B05FEA1B1B594668
:10371000A86A03F075FADAF80C00002804D15946BB
:103720002800FEF728FF05E0DAF80C100909280048
:10373000FEF721FF19F10109C3E7A86A03F022FC93
:1037400007B0BDE8F08FF8B504000D0016006A461A
:103750003100606A02F014FE07009DF800000028A6
:1037600009D13878012806D0DFF8BC2C29002000C8
:10377000FEF756FE09E0012038703100606A02F061
:1037800040FE002801D001210170F1BDF8B5040010
:103790000D006079012813D16A46692115F10800EE
:1037A00003F0EAFF06000027B74209DA009850F854
:1037B0002720120929002000FFF7C5FF7F1CF3E72F
:1037C000F1BDF8B504000D0016006A463100606ACC
:1037D00002F0D6FD07009DF8000000280ED0320050
:1037E0003900606A02F05AFE387800280FD1DFF8FD
:1037F000042D29002000FEF713FE08E03878042885
:1038000005D0DFF8F42C29002000FEF709FEF1BDF9
:10381000F8B504000D00607901281ED1606A0078B7
:10382000002806D1DFF8D42C29002000FEF7F8FD8F
:1038300013E06A46692115F1080003F09DFF0600B8
:103840000027B74209DA009850F82720120929000A
:103850002000FFF7B6FF7F1CF3E7F1BD70B5040051
:103860000D00DFF89C0CD0F8E800002822D12000E1
:10387000FEF7E8FD060033000122A9682000FEF7EC
:10388000D1FE4E21A06A03F079FAE868002809D039
:10389000E968200001F001FD002300220121A06A57
:1038A00003F0E1FD0121A06A03F00BFE3100A06AE4
:1038B00003F05BF970BD2DE9FC4704000D0020000A
:1038C000FEF7C0FD0600A86803F00EFF002825D112
:1038D0002000FEF7B7FD804643460022A96820007D
:1038E000FEF7A0FEE968200001F0D7FCA86803F00D
:1038F00006FF00286CD12869002802D168690028D9
:1039000008D0A06A03F0FBF8002803D13100A06AB8
:1039100003F05AFB4146A06A03F027F96A466C217E
:1039200015F1100003F028FF07005FF00008B8450C
:103930004ADA009850F8280000280DD0009810F8B6
:10394000280010F0030F07D1009850F828000079E4
:1039500000F0FF006D2808D040F2F342AE49DFF8D6
:10396000FC0702F0B3FCAFF30080009850F82890F9
:10397000D9F8080003F0B8FE002822D12000FEF795
:1039800061FD824653460022D9F808102000FEF758
:1039900049FED9F80C10200001F07FFCD9F808008E
:1039A00003F0ADFE002813D1A06A03F0A8F80028A8
:1039B00003D13100A06A03F007FB5146A06A03F06F
:1039C000D4F818F10108B2E76969200001F065FC3C
:1039D0003100A06A03F0C9F8BDE8F3875C7C06609B
:1039E000912C006054B306602DE9F84F83460C001B
:1039F000BBF81850BBF81A60BBF81E705846FEF7AB
:103A000021FD80465846FEF71DFD8146ABF8188023
:103A1000ABF81A90BBF81C00ABF81E00A06803F0CE
:103A200063FE002821D15846FEF70CFD8246A068AF
:103A300003F065FE002804D14946DBF8280003F0B6
:103A4000C3FA5146DBF8280003F08FF8E1685846C6
:103A500001F023FC4946DBF8280003F086F85346C2
:103A60000122A1685846FEF7DDFDABF81850ABF80F
:103A70001A60ABF81E702169584601F00EFC4146F1
:103A8000DBF8280003F071F8BDE8F18F2DE9F74F5E
:103A900084B006001F00DDF84080129D308BADF829
:103AA0000400708BADF80200F08BADF80000300020
:103AB000FEF7C8FC03903000FEF7C4FC8146039873
:103AC0003083A6F81A90B08BF0833000FEF7BAFC72
:103AD00002903000FEF7B6FC824617F0010494F025
:103AE0000104E4B2002C03D03900300001F0D5FB12
:103AF0000699300001F0D1FB5146B06A03F064FA38
:103B00000299B06A03F031F8B06A03F025FA002296
:103B100005993000FEF76EFF1199300001F0BDFBF2
:103B20004946B06A03F021F84146300001F0B5FB88
:103B30000E21B06A03F055FB5146B06A03F015F848
:103B4000E4B2002C06D0B06A03F011FAB06A03F0B8
:103B500025FA06E0B06A03F0FFF93900300001F001
:103B60009CFB5FEAC87008D440F26F522A49DFF824
:103B7000EC0502F0ABFBAFF300804046401000289C
:103B800004D40021B06A03F02CFB03E00121B06AE9
:103B900003F027FB029A0121B06A03F022FABDF874
:103BA00004003083BDF802007083BDF80000F0838C
:103BB0005FF0000B002D19D0B06A03F0E3F9E4B216
:103BC000002C02D0B06A03F0DDF92900300001F0CA
:103BD00064FB3000FEF736FC83465946B06A03F0BA
:103BE000F3F9E4B2611CB06A02F093FF0399B06A82
:103BF00002F0BBFFB06A03F0C5F9E4B2002C02D0BA
:103C0000B06A03F0BFF9002D03D05946B06A02F044
:103C1000ACFF07B0BDE8F08FB890066044D00660F6
:103C20008B3000605CD0066074D006602DE9F04FE8
:103C300089B00700884698F8080010F00F000228A5
:103C400040F0A080D8F80C00002800F09B8098F885
:103C50000C0010F0030F40F09580D8F80C000079AC
:103C600000F0FF00292840F08D80D8F80C90D9F89A
:103C7000080030F0000041F2C261884240F08280CA
:103C8000D9F80C00007900F0FF002D287AD1D9F87E
:103C90000C008068049003AA9F2104A803F06CFD27
:103CA00082460024BAF1010F59DBBAF1040F56DA4B
:103CB00001200400BAF1010F0BD10020FEF7A0FB98
:103CC00005000398006806000120FEF799FB834673
:103CD0001FE0BAF1020F0AD10398006805000398AB
:103CE000406806000120FEF78BFB834611E0039835
:103CF00000680500039840680600039880688346C2
:103D00005FEACB7003D558464010002801D100204F
:103D10000400E4B2002C0FD0002D0DD015F0030FDD
:103D20000AD1287900F0FF00A12803D0A22801D0F1
:103D3000A32801D100210C00E4B2002C0FD0002EEA
:103D40000DD016F0030F0AD1307900F0FF00A12842
:103D500003D0A22801D0A32801D100210C00E4B295
:103D6000002C0FD0D8F814000290D8F81000019061
:103D7000CDF800B033002A00D8F808103800FFF75B
:103D800085FE50E03C8B7D8BFE8B3800FEF75AFBA6
:103D900081463800FEF756FB8246A7F81890A7F830
:103DA0001AA0B88BF883388B50F400403883380061
:103DB000FEF748FB8346D8F80C10380001F06DFA86
:103DC0000121B86A03F0BDF95146B86A02F0CDFE90
:103DD0005946B86A03F0CCF90022D8F80810380028
:103DE000FEF708FED8F81010380001F056FAB86A4D
:103DF00002F085FE002803D15146B86A03F0E4F8CA
:103E00005946B86A02F0B1FEB86A03F0BEF93C83C5
:103E10007D83FE83D8F81410380001F03EFA49463D
:103E2000B86A02F0A2FE09B0BDE8F08F2DE9F24FAA
:103E300084B00600170098463000FEF703FB0090A0
:103E40003000FEF7FFFA02900099B06A03F053F9D0
:103E50003000FEF7FCFA0499300001F01EFAB06A57
:103E600003F09BF90299B06A03F0AEF80099B06ACA
:103E700002F07BFEB06A03F068FB3000FEF7E2FA66
:103E800001905FF00009B94580F2A68058F829003A
:103E900000280BD018F8290010F0030F06D158F8AD
:103EA0002900007900F0FF00702808D040F2FE528F
:103EB000DFF86C1BA94802F009FAAFF3008058F84C
:103EC00029A0002004003000FEF7BCFA8346DAF88F
:103ED000080000280ED119F10100B8422CD0DFF8FB
:103EE000442B58F829103000FEF79AFA3000FEF7FC
:103EF000BAFA86E0DAF80850002D0DD015F0030F5D
:103F00000AD12800017901F0FF01712904D18168EB
:103F10000D00C06800090400B06A03F01DF8290014
:103F2000300001F0BAF90821B06A03F05AF95A4694
:103F30000021B06A03F055F8002C03D1B06A03F0F9
:103F400021F803E021003000FEF715FB0025002CCE
:103F50000AD03000FEF776FA05002900B06A03F0B7
:103F6000D7F83000FEF773FADAF80C10300001F0E1
:103F700094F9002C02D0B06A03F00FF9B06A03F094
:103F800017F9002C19D00E21B06A02F052FE290058
:103F9000B06A02F0EAFD0E21B06A02F04AFE21008A
:103FA0003000FEF7E8FA21003000FEF7F7FA3000A3
:103FB000FEF759FAB06A03F0B8F80199B06A03F055
:103FC00003F85946B06A02F0D0FD0121B06A02F050
:103FD000A0FD19F1010956E73000FEF744FAB06A76
:103FE00003F0A3F8B06A03F0B7FA0299B06A02F0DE
:103FF000BCFD0E99300001F050F90199B06A02F051
:10400000B4FD05B0BDE8F08FACC306602DE9FC47F8
:1040100006000F00150098460A9CDDF82C90300031
:10402000FEF710FA82465146B06A03F071F830008C
:10403000FEF70DFA002D19D1002C09D040F24D6287
:10404000DFF8DC19DFF8E00902F040F9AFF3008097
:104050000321B06A02F05DFD3900300001F01DF966
:104060007FF00201B06A02F054FD06E0009443467E
:104070002A0039003000FFF7D9FEB06A03F08DF84E
:104080000E21B06A02F0D5FD5146B06A02F06DFD16
:104090004946300001F001F93000FEF7E4F9B06A5A
:1040A00003F043F8BDE8F387FEB504000D00E868AF
:1040B000002803D0287B10F0030F09D040F25E6285
:1040C000DFF85C19DFF8600902F000F9AFF3008057
:1040D000EE68307900F0FF0073280AD1B0680190D3
:1040E0000020009000230022A9682000FFF78EFF27
:1040F00032E0307900F0FF006F281ED102AA722151
:1041000016F1080003F038FB07003069002808D1D9
:10411000F0680090029B3A00A9682000FFF786FE35
:104120001AE0306980680190F0680090029B3A00C4
:10413000A9682000FFF76AFF0EE001AA722115F1BD
:104140000C0003F019FB070000200090019B3A00CF
:10415000A9682000FFF76AFEF7BD0000AC350760D4
:104160002DE9F84305000C0016001F00002C04D1B7
:104170003900280001F091F840E02800FEF762F9CC
:104180008046306800281BD0307810F0030F17D11C
:104190003068007900F0FF00762811D1D6F8009041
:1041A000D9F80810280001F078F84146A86A02F012
:1041B00079FF0022D9F80C102800FEF71BFC0AE05A
:1041C0003168280001F069F84146A86A02F06AFFE8
:1041D000A86A02F0D7FE2800FEF739F93B00321D2D
:1041E000611E2800FFF7BCFF4146A86A02F067FF86
:1041F0002800FEF738F9A86A02F097FFBDE8F183BE
:104200007CB504000D006A46752115F1080003F025
:10421000B3FA0600012E09DA40F29D62DFF80018B9
:10422000DFF8040802F052F8AFF30080EB68009A60
:1042300031002000FFF794FF73BD000025350060BA
:1042400010B504000021A06A02F07BFF0E21A06AD5
:1042500002F0EFFCA06A03F066F910BD2DE9F84307
:1042600004000D00E868002838D12079002815D016
:10427000606A0078002811D12E212000FEF768F92D
:10428000A968200001F009F8002300220121A06A9A
:1042900003F0E9F8A06A02F075FEC2E0287A10F097
:1042A000030F05D0287A10F00F00022840F0B980E3
:1042B000A86800280AD0287A10F0030F06D1A86851
:1042C000007900F0FF00372800F0AB80A9682000DB
:1042D00000F0E3FFA06A02F055FEA2E0E8680028C3
:1042E00000F09E80287B10F0030F40F09980EE686C
:1042F000377907F0FF07532F5AD10122A968200010
:10430000FEF778FBF168200000F0C7FF307A10F06C
:104310000F000E2809D040F27172DFF80417DFF8A1
:10432000080701F0D3FFAFF30080B06800094E2802
:104330001FD030D3502822D01ED3522822D024D3CD
:1043400054280DD024D3562807D003D358280AD098
:104350000CD320E05FF009081FE05FF00A081CE0C2
:104360005FF00B0819E05FF00C0816E05FF00D0835
:1043700013E05FF00E0810E05FF00F080DE05FF053
:1043800010080AE05FF0110807E05FF0120804E08F
:104390005FF0130801E05FF014084146C9B2A06A5B
:1043A00002F01FFF0222A9682000FEF723FB38E07D
:1043B000542F2BD1D6F804805FEA1828B8F10108F1
:1043C00006EB88008168200000F067FFB8F1010F5C
:1043D00002DBA06A02F0C0FD0022A9682000FEF7FF
:1043E00009FB5FF00009C1451BDA19F101004045E6
:1043F00002DAA06A02F0B0FD002206EB89008168B3
:104400002000FEF7F7FA19F10109ECE7E96820004E
:1044100000F043FF0022A9682000FEF7EBFA00E05D
:10442000F4E7BDE8F183000074B306602DE9F041C4
:1044300004000D0016006F683F0AA968200000F014
:104440002CFF5FF00108B8450DDA05EB88008168A4
:10445000200000F022FF3100C9B2A06A02F0C1FEC4
:1044600018F10108EFE7BDE8F0812DE9FC410400F7
:104470000D00E868002809D0287B10F0030F05D153
:10448000E868007900F0FF007B2809D040F2D17283
:10449000DFF88C15DFF8900501F018FFAFF300800E
:1044A000EE682000FDF7CEFF07002000FDF7CAFFF1
:1044B00080463B000022B1682000FEF7B3F8A968EF
:1044C000200000F0EAFE4146A06A02F07DFD3900BE
:1044D000A06A02F04AFB5FF0FF31A06A02F019FB0C
:1044E000F168200000F0D9FE4146A06A02F03DFBD1
:1044F000BDE8F38194B3066084A00660E090066096
:104500009C22012070B504000D006079012807D1BC
:10451000606A437E2A0002212000FDF7B6FF286171
:104520002E694823AA6831002000FEF731FC70BDD7
:104530002DE9F84304000D0016002000FDF782FF6E
:104540000700D5F804805FEA18285FF00009C1452C
:1045500012DA05EB89008168200000F09EFE19F157
:104560000100404505DA3A003100C9B2A06A02F004
:1045700050FD19F10109EAE73900A06A02F0F5FAE5
:10458000BDE8F18338B504000D00012229002000A8
:10459000FFF7CEFF31BD38B504000D000022290021
:1045A0002000FFF7C5FF31BD38B504000D00A96834
:1045B000200000F072FE0321A06A02F004FE31BD6B
:1045C0002DE9F84F05000E0077683F0AB168280012
:1045D00000F063FE042F01DB012400E000245FF003
:1045E0000008E4B2002C03D02800FDF72BFF804622
:1045F0005FF0010919F10100B84280F28D8006EBED
:104600008900C168280000F048FE19F10200B84294
:1046100005DAA86A02F0A0FCA86A02F0CAFC06EB60
:104620008900007A10F00F000E282AD106EB8900CD
:104630008068000936280AD038280BD03E280FD0D1
:104640003F2810D0402808D041280FD011E05FF05B
:10465000000B10E05FF0010B0DE05FF0020B0AE0D1
:104660005FF0030B07E05FF0040B04E05FF0050B65
:1046700001E05FF0060B5946C9B2A86A02F0B1FD2D
:104680003EE006EB89008068002805D006EB890033
:10469000007A10F0030F09D040F62202DFF88013F1
:1046A000DFF8840301F012FEAFF3008006EB89000F
:1046B000D0F808A09AF804B00BF0FF0BBBF17F0F05
:1046C00004D12421A86A02F08CFD19E0BBF1800F0F
:1046D00009D040F62802DFF84813DFF84C0301F058
:1046E000F5FDAFF30080DAF80800002804D10721B7
:1046F000A86A02F076FD03E02521A86A02F071FDA8
:1047000019F10200B84204DA42460021A86A02F018
:1047100080FC19F102096DE7E4B2002C19D02800E1
:10472000FDF790FE81464946A86A02F04DFC4146DD
:10473000A86A02F01AFA0121A86A02F0EAF9A86A46
:1047400002F02CFCA86A02F01DFC4946A86A02F09F
:104750000CFABDE8F18F38B504000D00DFF8002C2D
:1047600029002000FDF75CFE31BD38B504000D00C6
:10477000152229002000FFF759FE31BD38B504008D
:104780000D00162229002000FFF750FE31BD38B57C
:1047900004000D00172229002000FFF747FE31BD5D
:1047A0002DE9F84304000D006E68360AA968200060
:1047B00000F073FD0127781CB04248DA05EB870052
:1047C000C168200000F069FD05EB8700D0F8089073
:1047D0005FEA19195FFA89F948462F280CD030286A
:1047E0000DD031280ED0332812D034280DD03528E2
:1047F00011D0372812D014E05FF01A0820E05FF0E3
:104800001B081DE05FF01C081AE05FF01D0817E0B0
:104810005FF01E0814E05FF01F0811E05FF0180859
:104820000EE05FFA89F9B9F1390F07D040F65F025F
:104830007B497D4801F04AFDAFF300805FF0190825
:104840004146C9B2A06A02F0CCFCBF1CB3E7BDE888
:10485000F183F8B504000D00E968200000F01DFDAB
:10486000AF683F09FFB238002F2802D0302802D0AD
:1048700003E000260DE001260BE0FFB23D2F07D03C
:1048800040F66F026649684801F020FDAFF30080F2
:1048900002263100C9B2A06A02F095FCF1BD2DE9F3
:1048A000FE4F06000F00B968300000F0F6FCF86813
:1048B000002800F0B3805FF0010817F10C09D9F867
:1048C0000000007900F0FF00882808D1D9F8000026
:1048D0004068000A8046D9F8000010F108095FF02E
:1048E000000A706A0078072867D1B86830F00000C5
:1048F00041F65221884260D1D9F80000007900F0D9
:10490000FF002D2859D1D9F800008068002854D123
:1049100008213000FDF71CFE0025706AD0F82CB08D
:10492000706A048D002C0FD09BF80100C00707D5DA
:10493000DBF804103000FDF70BFE0120050003E05A
:10494000641E1BF1080BEDE7EDB2002D07D1DFF877
:10495000C42BD9F800103000FDF762FD5EE0B8F11D
:10496000030F22D3D9F80400007900F0FF002F28AC
:104970001BD1D9F80800007900F0FF002D2814D1D0
:10498000D9F804000090D9F8084001220098816805
:104990000909B06A02F00CFA00230122A168300074
:1049A00000F050F80320824607E000230022022195
:1049B000B06A02F058FD01208246C2452ED21AF19B
:1049C0000100404522D259F82A00007900F0FF008A
:1049D0002F281BD109EB8A004068007900F0FF0006
:1049E0002D2813D159F82A4009EB8A004568002286
:1049F000A1680909B06A02F0DBF900230122A96865
:104A0000300000F01FF81AF1010A04E059F82A10EA
:104A1000300000F042FC1AF1010ACEE7BDE8F78F42
:104A2000B8900660B4B30660AC35076038B50400D2
:104A30000D0029002000FDF770FD2021A06A02F082
:104A4000D0FB31BD2DE9FE4F82B080466A469F21E2
:104A500002A802F091FE0190DDF8109000250024DC
:104A6000002600275FF0000A0198824580F28E80C0
:104A7000009850F82A00002867D0009810F82A0003
:104A800010F0030F61D1009850F82AB09BF8040091
:104A900000F0FF00A1280CD1E00706D5DFF89C2B21
:104AA00059464046FDF7BCFC9BE054F001045E46CD
:104AB00069E09BF8040000F0FF00A2280CD1A007D9
:104AC00006D5DFF87C2B59464046FDF7A9FC88E067
:104AD00054F002045F4656E09BF8040000F0FF002B
:104AE000A32832D1DBF80C0000280BD09BF80C0077
:104AF00010F0030F06D1DBF80C00007900F0FF0086
:104B0000A7281AD09BF8080010F00F00022806D042
:104B1000DFF8302B59464046FDF782FC61E0DBF8B8
:104B200008100909D8F8280002F0D0F8DBF80C10BA
:104B3000404600F0B2FB6D1C25E006225946404677
:104B400000F052F819F101091DE0002C08D0DFF83F
:104B5000F82A009850F82A104046FDF761FC40E022
:104B6000002D08D0DFF8E42A009850F82A104046BB
:104B7000FDF756FC35E0009850F82A10404600F04A
:104B80008CFB19F101091AF1010A6DE7002C15D00F
:104B9000002E04D1D8F8280002F0B2F803E0B16882
:104BA000404600F07AFB002F04D1D8F8280002F02C
:104BB000A7F803E0B968404600F06FFB9DF80C00D1
:104BC000002807D023002A004946D8F8280002F020
:104BD00058FC06E023002A004946D8F8280002F0D5
:104BE00042FC05B0BDE8F08F2DE9F04104000D0056
:104BF00016006868000A022809D040F62512DFF87E
:104C0000501ADFF8500A01F061FBAFF30080E8684A
:104C1000002809D0287B10F0030F05D1E86800793F
:104C200000F0FF00A72809D040F62612DFF8201A6E
:104C3000DFF8200A01F04AFBAFF30080EF686079EB
:104C4000012808D1606A437E2A003100C9B22000E1
:104C5000FDF71BFC7861D7F8148000230022414641
:104C60002000FDF7A6FFF968200000F016FBF6B261
:104C7000062E03D10021A06A02F063FA002300226D
:104C80000121A06A02F0EFFBBDE8F08170B50400DD
:104C90000D00A868002805D1002200212000FDF7A2
:104CA00090FC5FE0A868002809D0287A10F0030F74
:104CB00005D1A868007900F0FF008C2809D040F6E3
:104CC0004212DFF88C19DFF88C0901F0FFFAAFF31C
:104CD0000080AD68E868002809D140F64412DFF88A
:104CE0007019DFF8700901F0F1FAAFF30080E8689D
:104CF000002832D0287B10F0030F2ED1EE683079D7
:104D000000F0FF008F2812D1B068002809D040F6CB
:104D10004912DFF83C19DFF83C0901F0D7FAAFF38C
:104D200000800022A9682000FDF74BFC1AE03079D2
:104D300000F0FF00902805D13200A9682000FDF79F
:104D400040FC0FE0307900F0FF00A72805D10622D3
:104D500029002000FFF748FF04E02A00002120007E
:104D6000FDF72FFC70BDF8B504000D00A868002801
:104D700004D10021A06A02F06CFA64E0A86800285F
:104D800059D0287A10F0030F55D1A868007900F0A7
:104D9000FF008C284FD1AE68F06800283ED0307BF1
:104DA00010F0030F3AD1F768387900F0FF008F2830
:104DB00015D1B868002809D040F66712DFF89018BE
:104DC000DFF8900801F082FAAFF30080B1682000AC
:104DD00000F063FA0121A06A02F03BFA33E038796F
:104DE00000F0FF0090280ED1B168200000F055FAC5
:104DF00039002000FDF791FB7968090A491CA06A77
:104E000002F027FA1FE0387900F0FF00A72805D14B
:104E1000032231002000FFF7E7FE14E0B168200014
:104E200000F03BFAF168200000F037FA0221A06A96
:104E300002F00FFA07E0A968200000F02EFA012125
:104E4000A06A02F006FAF1BD2DE9FE4F80468946C0
:104E5000D9F80860002E05D10021D8F8280002F00A
:104E600006FAE2E0002E00F0D78016F0030F40F0C3
:104E7000D380B14699F8040000F0FF0034280DD12A
:104E80000121D8F8280002F0F2F93100404600F084
:104E900004FAD8F8280002F0F7F9C6E099F80400FF
:104EA00000F0FF00992840F0B780D9F80C000028E6
:104EB00004D099F80C0010F0030F09D040F69112BD
:104EC000DFF88C17DFF88C0701F000FAAFF30080F1
:104ED000D9F80C0000900098007900F0FF009C28A1
:104EE0006ED102AA9D210098083002F045FC82464E
:104EF000D9F8080000281CD099F8080010F0030F1A
:104F000017D1D9F80800007900F0FF00342810D13B
:104F10001AF10101D8F8280002F0A9F9D9F808100F
:104F2000404600F0BAF9D8F8280002F0ADF90125A2
:104F300005E0D9F80810404600F0AFF900255FF011
:104F4000000BD34532DA029850F82B70002F09D0AD
:104F500017F0030F06D1387900F0FF00342801D193
:104F6000012400E000243900404600F096F9EDB23B
:104F7000002D0ED0E4B2002C06D1DFF8442C4946B7
:104F80004046FDF74DFA50E0D8F8280002F07CF9D1
:104F900009E0E4B2002C06D0DFF8242C4946404654
:104FA000FDF73EFA41E01BF1010BCAE7EDB2002D1F
:104FB0003BD11AF10101D8F8280002F071F934E070
:104FC0000098007900F0FF00A72809D040F6CA1227
:104FD000DFF87C16DFF87C0601F078F9AFF300808B
:104FE000D9F80800002811D099F8080010F0030F34
:104FF0000CD1D9F80800007900F0FF00342805D161
:10500000042249464046FFF7EFFD0EE005224946DF
:105010004046FFF7E9FD08E03100404600F03DF969
:105020000121D8F8280002F03BF9BDE8F78F38B528
:1050300004000D0000230022A9682000FFF702FDF4
:1050400031BD38B504000D00A968200000F025F935
:10505000A06A01F0CFFE31BD38B504000D00A9688B
:105060000909A06A01F097FE31BD70B505000E0078
:10507000307900F0FF00322809D040F6F512DFF851
:10508000D015DFF8400B01F021F9AFF30080B468D0
:10509000002C08D10E21A86A01F0CBFD0221A86ADC
:1050A00002F00CF96CE0002C62D014F0030F5FD119
:1050B0002600307900F0FF00942815D10E21A86A4F
:1050C00001F0B7FDB0680400002C04D10221A86AE9
:1050D00002F0F4F854E02100280000F0DEF803218B
:1050E000A86A02F0EBF84BE0307900F0FF00952859
:1050F00035D1B168280000F0D0F8F068002803D05E
:10510000307B10F0030F09D040F60A22DFF840157B
:10511000DFF8B00A01F0DAF8AFF30080F668307912
:1051200000F0FF00962809D040F60C22DFF8201589
:10513000DFF8900A01F0CAF8AFF30080B0680028E9
:1051400004D10221A86A02F0B9F819E0B168280078
:1051500000F0A3F80321A86A02F0B0F810E02100E3
:10516000280000F09AF80221A86A02F0A7F807E0E8
:105170002100280000F091F80221A86A02F09EF8B0
:1051800070BD38B504000D00A968200000F085F856
:10519000E868002803D0287B10F0030F09D040F600
:1051A0002322DFF8AC14DFF81C0A01F08FF8AFF30C
:1051B0000080E9682000FFF758FF31BD38B50400D2
:1051C0000D000E21A06A01F034FD29002000FFF738
:1051D0004CFF31BD38B504000D00E968200000F037
:1051E0005CF8A968200000F058F831BD70B50400E3
:1051F0000D00606A427E29002000FDF71EFE0600B9
:1052000031002000FDF7B7F970BD38B504000D007E
:10521000606A007807280AD0606A0078022806D001
:10522000DFF8A42929002000FDF7FAF827E0A86894
:10523000002807D10E21A06A01F0FBFCA06A02F051
:1052400061F91CE0A868002812D0287A10F0030F3A
:105250000ED1A868007900F0FF00AA2808D1AD6837
:10526000A968200000F019F82000FEF7E9FF06E029
:10527000A968200000F011F8A06A02F043F931BDDE
:105280008068704738B504000D002800FFF7F8FF6C
:105290000100A06A01F027FD31BDF8B505000C0042
:1052A000002C5BD0E00706D5260076103100A86AF6
:1052B00001F0F2FC52E014F0030F33D0260036095F
:1052C00014F00F00022804D0062807D00A280AD0BC
:1052D00020E031002800FDF73BF93FE03100A86AEB
:1052E00001F0F4FC3AE06879042805D0DFF8DC1816
:1052F000A86A01F0F8FC0CE06946300003F04BF9B5
:1053000007000099380005F0F8FD0100A86A01F0D7
:10531000EAFC23E0042E04D03100C9B2A86A01F0EF
:1053200088FC1BE026003168A86A01F01DFC30797A
:1053300000F0FF00382807D340F6A222C449C54830
:1053400000F0C4FFAFF30080DFF88408317901F08A
:10535000FF0150F8217031002800B847F1BD00006E
:10536000D4B306602DE9FE4F07000C009046994625
:105370000C9E786A007E800706D5DFF8442821005D
:105380003800FDF74DF8C3E000255FF0010A14F086
:105390000F00022811D1200000090500B87900286B
:1053A00005D0786A808B401C796A888398E0786A97
:1053B000408B401C796A488392E0002C02D014F0A4
:1053C000030F07D040F6BB22A149A24800F07EFFA0
:1053D000AFF30080A3469BF8040000F0FF005FFAE3
:1053E00088F8404512D1DBF8080000090500B879BB
:1053F000002805D0786A808B401C796A88836FE02A
:10540000786A408B401C796A488369E09BF8040005
:1054100000F0FF005FFA89F9484546D1B8790028C5
:1054200006D0DFF89C2721003800FCF7F9FF6FE079
:105430000120B87103208246DBF8080000284FD015
:105440009BF8080010F00F0002280AD1786A007E4D
:1054500050F00100796A0876DBF8080000090500C1
:105460003EE0DBF8080000280BD09BF8080010F0A5
:10547000030F06D1DBF80800007900F0FF00472891
:1054800007D040F6D7227249724800F01FFFAFF3F1
:105490000080786A007E50F00100796A0876DBF8B7
:1054A00008008068000905001AE09BF8040000F07D
:1054B000FF00F6B2B04207D040F6DE2264496548EC
:1054C00000F004FFAFF30080DBF8080000090500DE
:1054D00005208246786A007E50F00200796A0876DC
:1054E000002D15D06A462900786A00F049FF8346EE
:1054F0009DF80000002806D1DFF8D82621003800EA
:10550000FCF78EFF04E002208BF800008BF801A06E
:10551000BDE8F78F8CD0066038B504000D0044203C
:1055200000904323422229002000FFF71BFF31BDDA
:1055300038B504000D004C2000904B234A2229006E
:105540002000FFF70FFF31BD2DE9F84F83460D0016
:1055500016001F005846FCF775FF80465846FCF7BA
:1055600071FF81464146DBF8280001F0FEFA49460A
:10557000DBF8280001F0FCFD0022A9685846FDF781
:1055800039FA2C69002C1BD131005846FFF785FEF3
:10559000DBF824000078062808D1DBF8280001F0A9
:1055A000B1FFDBF8280001F0EDFC36E0BA00521D37
:1055B000DBF824000178DBF8280001F08DFE2CE0F8
:1055C000207900F0FF00A8280BD1A2464346002214
:1055D000DAF808105846FDF725F8DAF80C00040050
:1055E000D0E7207900F0FF00A72807D040F63D3231
:1055F0001749184800F06AFEAFF30080E16858468A
:10560000FFF74BFE0121DBF8280001F09AFD7B1C1F
:10561000320021005846FFF797FF4146DBF828008B
:1056200001F0D2FC4946DBF8280001F09EFADBF8D5
:10563000280001F0AAFDBDE8F18F0000A4D00660AB
:10564000BCD00660A8A00660C8C30660CCA00660F7
:10565000B8900660AC35076070472DE9FC4705003F
:105660000E0017006F716E62002028613200390051
:10567000C9B2A86A01F048F96879012803D100206D
:1056800070840020B084F06800281FD0307B10F0B8
:10569000030F1BD1F068007900F0FF003A2815D104
:1056A0003078002809D040F68632DFF82C15DFF874
:1056B000140500F00BFEAFF30080F468A168280029
:1056C000FFF7EBFDA86A01F0EBFEBAE130780028A5
:1056D00012D12879002803D1F1682800FFF7BCFF18
:1056E000F1682800FFF7D9FD0E21A86A01F0A1FAA0
:1056F000A86A01F0D5FEA4E1307807283ED1F06811
:10570000002803D0307B10F0030F09D040F692320E
:10571000DFF8C414DFF8AC0400F0D8FDAFF300806C
:10572000F468207900F0FF00032809D040F6943295
:10573000DFF8A414DFF88C0400F0C8FDAFF300809C
:105740006879012808D10020A871DFF89034402240
:10575000E1682800FCF7B8FE61692800FFF79DFDAD
:10576000A86A01F0CCF9002840F06B810E21A86AEC
:1057700001F05FFAA86A01F093FE62E13078022836
:105780003DD1F068002803D0307B10F0030F09D022
:1057900040F6B932DFF84014DFF8280400F096FD37
:1057A000AFF30080F4686068000A032809D040F66F
:1057B000BB32DFF82414DFF80C0400F087FDAFF3F0
:1057C00000806879012808D10020A871DFF8103422
:1057D0004822A1682800FCF777FEE1682800FFF75F
:1057E0005CFD307E400706D5A86A01F0CBFB0E2198
:1057F000A86A01F01EFAA86A01F052FE21E1307891
:10580000032809D03078042806D03078052803D042
:105810003078062840F09980F068002803D0307B6B
:1058200010F0030F09D040F6CF32DFF8AC13DFF8E9
:10583000940300F04BFDAFF30080F4686068000A49
:10584000022809D040F6D132DFF88C13DFF8740358
:1058500000F03CFDAFF30080E068002809D0207B19
:1058600010F0030F05D1E068007900F0FF00A728D1
:1058700009D040F6D232DFF86013DFF8480300F0B9
:1058800025FDAFF30080D4F80C805FF00109687942
:10589000012819D10DF101024946686A00F070FD36
:1058A00082469DF80100002809D140F6DD32DFF87C
:1058B0002813DFF8100300F009FDAFF30080022089
:1058C0008AF80000012070833078032804D1002179
:1058D000A86A01F0BEFC0EE03078042804D1002153
:1058E000A86A01F0C4FC06E03078052803D1002145
:1058F000A86A01F0D5FC307806280DD1A86A01F01D
:10590000FFF949462800FCF723FEA86A01F0F8F9E0
:10591000A86A01F0F5F907E049462800FCF718FEEF
:105920000121A86A01F00DFC0023A268414628006D
:10593000FFF70AFE3078062803D10E21A86A01F08D
:1059400078F9A86A01F0ACFD7BE03078012807D037
:105950004FF44062A0499B4800F0B8FCAFF30080D0
:10596000F068002803D0307B10F0030F07D040F61A
:1059700001429949934800F0A9FCAFF30080D6F8A2
:105980000C8098F8040000F0FF00352807D040F69E
:10599000034291498B4800F099FCAFF3008068798D
:1059A000012813D16A460821300000F0E9FC040008
:1059B0009DF80000002807D140F60842864981483A
:1059C00000F084FCAFF30080022020702521280025
:1059D000FCF7BEFD23212800FCF7CDFDD8F8081008
:1059E0000909A86A01F072F92D212800FCF7C3FD0E
:1059F000D8F810102800FFF72FFED8F81010280054
:105A0000FFF74BFC0821300000F0E8FC0400002CFC
:105A100007D140F6154270496A4800F057FCAFF3D1
:105A200000802078022804D10E21A86A01F001F933
:105A300004E062880821A86A01F06DF9A86A01F003
:105A40002FFDA86A01F00DF8A88B002807D040F6BA
:105A5000214261495B4800F039FCAFF30080BDE8AA
:105A6000F3872DE9F8430400207EC0071DD50020F0
:105A7000218D491E002918D4E26A02EBC102537835
:105A80009B070AD5002807D0D0E90067D2E9008932
:105A9000C0E90089C2E9006707E0002803D1537814
:105AA000012B00D11000491EE4E7002020840021D2
:105AB000208D81421CDAE06A00EBC10220780128C7
:105AC00002D15068082811D02078022804DB107811
:105AD000002801D1012010701078022802D05078DF
:105AE000C00703D5208C431C23845080491CDFE76A
:105AF0000020218D88420FDAE16A01EBC0010A78AB
:105B0000032A07D14A78D20704D4228C4A80228CF7
:105B1000521C2284401CECE7606800284ED000250F
:105B200000266068008D86422EDA6068C06A00EB4D
:105B3000C6073878032802D03878042822D15FF0CD
:105B40000008208D80451DDAE06A00EBC80999F84D
:105B50000000042813D17868D9F8041088420ED1C7
:105B600099F80100C00707D540F6FF421A491548C9
:105B700000F0ACFBAFF30080A9F802506D1C18F1E7
:105B80000108DEE7761CCCE7012D17DB0020218D14
:105B900088420DDAE16A01EBC0010A78042A02D1D9
:105BA0004A78D20702D54A88AA184A80401CEEE7F4
:105BB000608B28186083208C2D182584BDE8F18324
:105BC00094F80660AC350760E4C306604051076096
:105BD0008C10066000C40660B8900660195500601D
:105BE000315500602DE9F74F8CB005001E0001A86B
:105BF0002C2105F0C3FA01AF0D9838603E714FF6C5
:105C0000FF7038834FF6FF7078830E9B2A6800215F
:105C10003800FCF73AFC824600F0E6FC8046C7F804
:105C200028805FF000093C6A002C0ED0B86800287C
:105C30000BD1012221003800FFF70FFD38698145A3
:105C400001D238698146A468EEE73C6A002C07D08F
:105C5000B868002804D12000FFF703FFA468F5E727
:105C60004946404600F0C5FC3C6A002C1BD0B86891
:105C7000002818D1C7F82880022221003800FFF739
:105C8000ECFCB868002804D1032221003800FFF79B
:105C9000E4FCB868002804D1042221003800FFF792
:105CA000DCFCA468E1E7B86800280BD0786AC1681A
:105CB0003800FCF7AAFB786A438AFA683968B86842
:105CC00000F056FA404600F09EFC280002F0E4FA8C
:105CD000DAF8140000905446002C06D0D4F808B02E
:105CE000200000F044FB5C46F6E7B868002803D0CB
:105CF000B86805F046FA00E000980FB0BDE8F08FF4
:105D00002DE9F04104000D0016001F003B00DBB23E
:105D1000320029002000FFF765FF804600220021A5
:105D2000404605F063FABDE8F0818268521C82604B
:105D3000426832B10268531C036011704168491E09
:105D40004160704710F00100704710F0030F01D15F
:105D5000012000E00020C0B270472DE9F0470700A5
:105D600088469146C24619F07F0419F08005EDB2CD
:105D7000ED09EDB2002D0ED1E4B2012C02D0E4B257
:105D8000022C08D1DAF80000406802F0FDFB0100A7
:105D9000380005F0B5FAE4B2022C03D173A1380043
:105DA00005F0AEFAE4B2002C02D0E4B2022C3AD1F3
:105DB000DAF80C00002804D0DAF80C00406800285B
:105DC00004D16BA1380005F09BFA33E0DAF80C003F
:105DD0004068012827D1DAF80000DFF8B8148842BB
:105DE00019D1DAF80C008068FFF7ACFF002812D058
:105DF000DAF80C00806805F019FF0600002E0AD0C2
:105E00003300DAF80C0082685210DFF88C14380086
:105E100005F01CFD0EE00022DAF80C008168380065
:105E200005F054FF06E04A46D2B2DAF80C1038000A
:105E300006F038FBBDE8F0872DE9F84F07000C00AD
:105E400090469946002000904FF6FF73002241468D
:105E5000200006F097FD102002F020FC0500002D28
:105E600002D1DFF8380405002F600020A860002C64
:105E700002D1DFF82C6417E0A000083002F00EFC1D
:105E80000600002E03D1DFF8180406000CE0DFF84E
:105E90001404306074605FEA840A16F1080B5246FD
:105EA0004946584602F03AFCEE602800BDE8F28F01
:105EB00001000A00D0684068002802D1DFF8E8033A
:105EC00001E0D06880687047F8B504000D00160046
:105ED0002700306800280CD0352D09D17068DFF814
:105EE000C813884204D1786880B27860002030609E
:105EF00010E09F2D02D1F86830600BE03868DFF8C1
:105F0000AC13884206D1B5F5E57F03D12000FFF739
:105F1000CFFF3060F1BD10B5040000220021200049
:105F200000F009F810BD13B5040001AA01212000FA
:105F300000F001F816BDF8B504000D001600E06889
:105F4000DFF86C13884209D040F23712DFF864138F
:105F5000DFF8640300F0BAF9AFF3008033000022E9
:105F600029002000E768B847F2BD00003A20000091
:105F70000000000038B504000D002900200000F0EA
:105F80003BF832BD2DE9F04104000D00160027005A
:105F9000B86830187968884220D33878002818D03B
:105FA000D7F8048016EB080818F1100801224146C2
:105FB000F86802F0A2FB002807D1002139707A6846
:105FC000B968521A521E160008E0C7F80480F8603B
:105FD00004E07968B868091A491E0E00F868B968C3
:105FE00000EB010832002900404602F097FBB86838
:105FF0003018B860BDE8F0810CB42DE9F8478BB0DB
:1060000007000C00002C07D140F26112A949AA48F0
:1060100000F05CF9AFF30080F868A549884207D02A
:106020004FF4B272A349A44800F050F9AFF30080D6
:10603000102002F033FB0500200006F065FD8046CD
:1060400018F10108404602F029FB06005FF0000944
:10605000002D06D10023002200213800FFF7ECFEBE
:1060600035E0002E04D1B8F10100A860EC6020E01A
:1060700001A8102105F082F899F001008DF80400C4
:10608000CDF8088004968D4AD2E90001CDE90501DA
:1060900001A805900DF1500A5246210005A805F00F
:1060A000E2FB00200499039A88540398A86004989E
:1060B000E86083482860A968E86802F0FBF8686037
:1060C00000956B46002201213800FFF7B5FE0CB0A9
:1060D000BDE8F0075DF80CFB10B504002000FFF7E9
:1060E00034FE00280AD020687649884206D1210073
:1060F000C8686F4A904201D1012003E07249200034
:1061000007F006FD10BD10B50400200005F0B4FD39
:10611000FFF7E2FF10BD38B504000D002000FFF7C7
:10612000F2FF002803D0200005F0A6FD040029009E
:10613000200007F0EDFC32BD1CB504002000FFF785
:10614000E2FF002807D140F2C3125A495A4800F032
:10615000BDF8AFF30080200005F08EFDC068544903
:10616000884201D1200000E020690021816013BD38
:106170002DE9FC4107000C0015001E003800FFF758
:10618000C2FF002807D14FF4E5724A494A4800F09F
:106190009DF8AFF30080380005F06EFDC0684449FB
:1061A000884201D1B84601E0D7F81080D8F808003D
:1061B000002815D10C2002F071FAC8F80800D8F8B0
:1061C000080000283AD00320D8F8041060F30F012B
:1061D000C8F80410D8F8040080B2C8F804001DE024
:1061E000D8F8040080B2D8F80410090CC91C884201
:1061F00014DA0122D8F8040080B2C01C8100D8F85B
:10620000080002F07AFA002818D0C8F80800D8F878
:106210000410CA1CC2EA0101C8F80410D8F808002A
:10622000D8F80410090C00EB8100D8F8041011F51F
:106230004031C8F80410046045608660BDE8F38111
:106240007CB504000D0016002000FFF75CFF00285D
:1062500007D14FF4FF721749174800F037F8AFF332
:106260000080200005F008FDC0681149884201D176
:10627000210000E021698868002804D100202860FE
:106280000020306004E04868000C286088683060B6
:1062900073BD00000C5E0660D4080760B4220120C4
:1062A00034450760F466066040510760005B066095
:1062B000395E006080960660A4420760AC420760C9
:1062C000B86606606C670660D459066000B583B096
:1062D0000091019202906A4604491820ABBE002842
:1062E00001D107F045FD03B000BD00BF1010020052
:1062F0002DE9F04105000C0016001F00302002F0CF
:10630000E4F9804688F80050C8F80C40A8F81060FE
:10631000EDB2072D02D0EDB2012D10D1002C02D02C
:1063200014F0030F06D0312259495A48FFF7CEFF27
:10633000AFF30080A0680009A8F8120004E05648F6
:10634000EDB2405DA8F8120004F038FFC8F8140060
:1063500088F819700420A8F82600B8F82600C000B4
:1063600002F08CF9C8F82C004046BDE8F08110B569
:106370000400E06A02F0CCF9200002F0C9F910BD77
:10638000F8B505000E0017003100280000F026F8CF
:106390000400002C03D00020387020001DE0288D60
:1063A000E98C884209D3E88C801DC100E86A02F0BC
:1063B00092F9E862E88C801DE884288D411C2985CB
:1063C000E96A80B201EBC000002101700021417038
:1063D00000214180466001213970F2BD0200002099
:1063E000138D98420BD2D36A03EBC0035B688B42D8
:1063F00003D1D26A02EBC00002E0401CF0E70020AB
:10640000704738B504000D006068002801D064684A
:10641000FAE729002000FFF7E1FF32BDF8B50400DC
:106420000D006068002806D16E2219491948FFF74F
:106430004DFFAFF3008066687068002806D17022B7
:1064400013491448FFF742FFAFF300806A46290062
:106450003000FFF795FF07009DF80000002803D0EB
:10646000042038707668E7E73878022802D10320E4
:1064700038700CE03878042809D03878032806D022
:106480007E2203490348FFF721FFAFF30080F1BDEF
:10649000A0AB0660DC4C0760E44C07602DE9F041DE
:1064A00005000E0017006868002820D0D5F8048089
:1064B000D8F8040000281AD039004046FFF78EFFB4
:1064C0000400002C10D02078022805D02078032862
:1064D00002D02078042806D104203070390028002A
:1064E000FFF79CFF05E002E0D8F80480E0E7002019
:1064F0003070BDE8F081303A7CB504000D006A468A
:1065000029002000FFF73CFF06009DF8000000284E
:1065100004D02A0031002000FFF7C0FF73BD38B55A
:1065200004000D006A4629002000FFF729FF010042
:106530009DF80000002808D02078022802DB022005
:1065400008700AE00020087007E02078022804DBC9
:106550000878002801D10220087031BD2DE9F041F2
:1065600005000E001700984641463800FFF736FF39
:106570000400002C06D13E2219491A48FFF7A6FE56
:10658000AFF300802078002804D141462800B2688B
:10659000904722E02078012804D141462800F26883
:1065A00090471AE02078022805D1628841462800E9
:1065B0003368984711E02078032809D02078042810
:1065C00006D0482206490748FFF780FEAFF3008057
:1065D00062884146280073689847BDE8F081000052
:1065E000709206606C38076080B5402002F06DF84C
:1065F00002BD38B504000D00A561A069800002F05D
:106600003DF8E06131BD10B50400E06902F080F8AA
:10661000200002F07DF810BDFEB505000E0014004C
:106620000DF105077F1E14F07F003870E409002C7F
:10663000F8D10DF10501C91B2800B04701A98F420F
:1066400006D0397851F0800101707F1C401CF5E7BD
:1066500039780170F7BD38B505000C006879042859
:1066600004DA286A20182862280013E0686A296A78
:106670006118884208D27322DFF81816DFF8880DF7
:10668000FFF724FEAFF30080286B296A0844296ACB
:106690006118296232BD38B504000D0001212000C7
:1066A000FFF7D9FF057031BD38B504000D002A0091
:1066B000DFF8581D2000FFF7AFFF31BD38B50400EB
:1066C0000D002800000C002808D08422DFF8C41533
:1066D000DFF8340DFFF7FAFDAFF300800221200050
:1066E000FFF7B9FF05702900090A417031BD38B5BF
:1066F00005000C006879042804DAA86A2018A8624A
:10670000280015E0E86AA96A6118884208D2B22216
:10671000DFF88015DFF8F00CFFF7D8FDAFF300804D
:10672000286B696A0844A96A0844A96A6118A962C1
:1067300032BD38B504000D0001212000FFF7D7FF5E
:10674000057031BD70B504000D0016000221200057
:10675000FFF7CDFF0570467070BDFEB505000E0059
:1067600014003100C9B22800FFF7E3FF0DF105075F
:106770007F1E14F07F003870E411002C02D014F159
:10678000010FF5D114F1010F06D13878400603D47A
:106790007F1E7F20387007E0002C05D13878400636
:1067A00002D57F1E002038700DF10501C91B28009D
:1067B000FFF79DFF01A98F4206D0397851F0800183
:1067C00001707F1C401CF5E739780170F7BD70B58A
:1067D00004000D0016002900C9B22000FFF7A9FF30
:1067E0003200DFF8101D2000FFF716FF70BDF8B56E
:1067F00004000D0016001F006079042802D1E06B30
:1068000040F8267032002900C9B22000FFF7DFFFF0
:10681000F1BD70B504000D0016003000000C00281A
:1068200008D0EF22DFF86C14DFF8CC0CFFF74EFD38
:10683000AFF3008003212000FFF759FF0570467079
:106840003100090A817070BD70B504000D0016009A
:10685000A08E411CA1863300E168498BE268928BCF
:10686000511811FA80F22900C9B22000FFF7BFFFCA
:1068700070BD70B504000D001600208F411C2187EB
:106880003300E168498BE268928B5118E28E8918D7
:1068900011FA80F22900C9B22000FFF7A8FF70BDED
:1068A000F8B504000D0016006079042801DA00270D
:1068B00005E0E06950F82600A76AC71BFF1E032108
:1068C0002000FFF714FF057047703900090A817036
:1068D000F1BDF8B504000D0016006079042801DA56
:1068E000002707E0E06950F82600A76AC71B07F5F4
:1068F000FE47FD3703212000FFF7F9FE05704770C2
:10690000390009128170F1BD2DE9F84305000E0030
:1069100017006E710020A860686830F47F0068601E
:10692000EF600020286101206861F6B2042E0ADAC7
:10693000A86984005FF0FF38D5F81C90424621001A
:10694000484607F019FA0020A86200202862388C17
:10695000798C0C18002C01D10120040021002800A2
:10696000FFF7A2FEB98C2800FFF79EFEE868017EC3
:106970002800FFF790FEE868418BC9B22800FFF7B6
:106980008AFEE868818BC9B22800FFF784FEE868B8
:10699000C18BC9B22800FFF77EFEF6B2042E06D1E5
:1069A000696A286A091A2800FFF77EFE03E00221BF
:1069B0002800FFF750FE798A2800FFF77FFE398A0A
:1069C0002800FFF77BFE0024388D84421BDAF86A2A
:1069D00000EBC40898F80000032812D1B8F80200B0
:1069E000FF2808DB4FF4B572AA49DFF81C0AFFF74D
:1069F0006DFCAFF30080B8F80210C9B22800FFF7B1
:106A000098FE641CE0E7FF212800FFF792FE0020BB
:106A1000A88600202887F6B2042E20D10020798B8A
:106A2000BA8B511888421ADA382100223B8D9A42DB
:106A30000DDAFB6A03EBC2035C78E40705D55C88DA
:106A4000844202D15C68210001E0521CEEE789001B
:106A500051F00201EA6B42F82010401CDFE7BDE86C
:106A6000F18310B504006079012847D0A0680028A0
:106A700008D040F299128749DFF87C0AFFF726FC1C
:106A8000AFF3008000212000FFF705FE60790328A6
:106A90000CDBE08EA18E884208D04FF4CF727D4986
:106AA000DFF8540AFFF712FCAFF30080A08EE086F7
:106AB0006079032817D1206A6062A06AE062606A88
:106AC000E16A081801F001FE2063E068408BE1688C
:106AD000898B0818A18E4018218F4018800001F082
:106AE000F4FDE0630AE06079042807D1E068037EE2
:106AF000E26B216BE068406904F06AFB10BD4068FE
:106B0000C0F30740002801D0012000E00020C0B2FF
:106B1000704738B504000D00607901281BD0A068CB
:106B20002818002808D540F2CB125A49DFF8C809C6
:106B3000FFF7CCFBAFF30080A0682818A060E068E6
:106B4000408CA168884202DAA068E16848846068E5
:106B500030F47F00606031BD38B504000D002900BD
:106B60002000FFF7D6FF31BD704738B504000D0097
:106B700000212000FFF7F0FF6079012831D0A069E3
:106B8000854208D34FF4F8724249DFF86C09FFF7E9
:106B90009DFBAFF300806079042813DAE06950F8B8
:106BA000250010F1010F08D040F2F3123949DFF847
:106BB0004809FFF78BFBAFF30080A06AE16941F859
:106BC00025000EE0E06950F82500A16A884208D04F
:106BD00040F2F7122F49DFF82009FFF777FBAFF3F8
:106BE000008031BD38B504000D005FF0FF3120009A
:106BF000FFF7B2FF2A0068212000FFF70AFE31BD2F
:106C000038B504000D0001212000FFF7A5FF2A0080
:106C100069212000FFF7FDFD31BD10B504005FF0D4
:106C2000FF312000FFF798FF6A212000FFF781FD68
:106C300010BD38B504000D0001212000FFF78CFFC6
:106C4000EDB20D2D04D012D30F2D0BD005D30EE0D5
:106C500010212000FFF76DFD1BE011212000FFF740
:106C600068FD16E012212000FFF763FD11E0EDB290
:106C70000C2D08D040F211220649DFF88C07FFF7EF
:106C800025FBAFF30080DFF8742817212000FFF701
:106C9000DBFD31BD0CA3066038B504000D000121F9
:106CA0002000FFF759FF15F1100F09DB302D07DA2F
:106CB0002800B0F18001C9B22000FFF73AFD04E0DE
:106CC0002A0014212000FFF748FD31BD38B504002B
:106CD0000D0001212000FFF73FFF2A0016212000B0
:106CE000FFF797FD31BD38B504000D0001212000EC
:106CF000FFF732FF2A0017212000FFF7A5FD31BD65
:106D000010B5040001212000FFF726FF1821200004
:106D1000FFF70FFD10BD70B504000D001600012136
:106D20002000FFF719FF102E07D23000B0F15001FC
:106D3000C9B22000FFF7FDFC04E032001921200059
:106D4000FFF745FD70BD70B504000D001600012170
:106D50002000FFF701FF32001A212000FFF737FD66
:106D600070BD38B504000D0001212000FFF7F4FECE
:106D70002A001B212000FFF74CFD31BD38B504006F
:106D80000D0001212000FFF7E7FE2A001C21200052
:106D9000FFF73FFD31BD38B504000D000021200094
:106DA000FFF7DAFE2A001D212000FFF732FD31BD7A
:106DB00070B505000E001400E4B26100D1F10101CC
:106DC0002800FFF7C9FEE4B2002C01D01F2100E02B
:106DD0001E213200C9B22800FFF71BFD70BD10B59F
:106DE000040001212000FFF7B7FE20212000FFF75B
:106DF000A0FC10BD10B504005FF0FF312000FFF7CC
:106E0000ABFE21212000FFF794FC10BD70B50400FB
:106E10000D0016005FF0FF312000FFF79DFE102EE1
:106E200007D23000B0F14001C9B22000FFF781FC69
:106E300004E0320022212000FFF7C9FC70BD70B5CC
:106E400004000D0016005FF0FF312000FFF784FE04
:106E5000320023212000FFF7BAFC70BD38B50400D2
:106E60000D005FF0FF312000FFF776FE2A0024219D
:106E70002000FFF7CEFC31BD38B504000D005FF0F7
:106E8000FF312000FFF768FE2A0025212000FFF7D0
:106E9000C0FC31BD38B504000D007FF001012000B9
:106EA000FFF75AFE2A0026212000FFF7B2FC31BD71
:106EB00010B504007FF002012000FFF74DFE2721EE
:106EC0002000FFF736FC10BD70B504000D00160061
:106ED000320028212000FFF77AFC70BD70B5040055
:106EE0000D001600320029212000FFF770FC70BD54
:106EF00038B504000D0000212000FFF72DFE2A0008
:106F00002A212000FFF785FC31BD38B504000D00B3
:106F100000212000FFF720FE2A002B212000FFF790
:106F200078FC31BD38B504000D002000FFF7E8FE05
:106F3000200000F033F829002000FFF7ABFF31BD3F
:106F400010B504002000FFF7DBFE200000F031F850
:106F50002000FFF7ADFF10BD10B504000121200097
:106F6000FFF7FAFD30212000FFF7E3FB10BD10B55D
:106F7000040002212000FFF7EFFD31212000FFF780
:106F8000D8FB10BD10B504005FF0FF312000FFF703
:106F9000E3FD32212000FFF7CCFB10BD10B504004B
:106FA00000212000FFF7D8FD33212000FFF7C1FBAF
:106FB00010BD10B5040000212000FFF7CDFD3421E5
:106FC0002000FFF7B6FB10BD38B504000D0000210E
:106FD0002000FFF7C1FD2A0035212000FFF779FCD2
:106FE00031BD70B505000C0016005FF0FF312800C0
:106FF000FFF7B2FDE4B2002C05D0320036212800A4
:10700000FFF767FC04E0320037212800FFF761FC3E
:1070100070BD70B505000C0016005FF0FF31280050
:10702000FFF79AFDE4B2002C05D032003821280089
:10703000FFF74FFC04E0320039212800FFF749FC3C
:1070400070BDF8B505000E001400002C19D1002108
:107050002800FFF781FD30040CD532212800FFF70E
:1070600068FB0027032F05D232212800FFF761FBC0
:107070007F1CF7E736F4004235212800FFF729FC92
:107080000FE036F4004246212800FFF722FC3004CE
:1070900001D5802100E000212143C9B22800FFF77B
:1070A00048FBF1BD38B504000D0002212000FFF7B8
:1070B00053FD2A003D212000FFF7F2FB31BD38B51A
:1070C00004000D00200000F068F80E212000FFF7FA
:1070D000B0FD29002000FFF748FD02212000FFF746
:1070E0003BFD3E212000FFF724FB7FF00301200041
:1070F000FFF732FD31BD38B504000D00002120003E
:10710000FFF72AFD2A003F212000FFF7C9FB31BD10
:1071100038B504000D0000212000FFF71DFD2A00F6
:1071200040212000FFF7BCFB31BD10B504005FF02B
:10713000FF312000FFF710FD41212000FFF7F9FA91
:1071400010BD38B505000C00E4B2002C01D00321BD
:1071500000E000212800FFF7FFFCE4B2002C01D082
:10716000472100E04221C9B22800FFF7E2FA31BD11
:1071700038B504000D0001212000FFF7EDFC2A00C6
:1071800043212000FFF78CFB31BD10B504007FF0D8
:1071900003012000FFF7E0FC10BD10B50400002142
:1071A0002000FFF7D9FC44212000FFF7C2FA10BDF0
:1071B00010B5040000212000FFF7CEFC452120007F
:1071C000FFF7B7FA10BD38B504000D00002120000C
:1071D000FFF7C2FCB5F13001C9B22000FFF7A9FAF0
:1071E00031BD70B505000E000024F6B2242E04D186
:1071F000012004000620060006E0F6B2252E03D189
:1072000001200400072006005FF0FF312800FFF78F
:10721000A3FCB6F12901C9B22800FFF78AFAE4B24B
:10722000002C07D000212800FFF796FCD32128006E
:10723000FFF77FFA70BD38B504000D00D5F10101EC
:107240002000FFF789FC2A0050212000FFF7BFFA39
:1072500031BD38B504000D00D5F101012000FFF764
:107260007BFC2A0051212000FFF7B1FA31BD38B56F
:1072700004000D0001212000FFF76EFC2A005321BD
:107280002000FFF7A4FA31BD10B504007FF0010122
:107290002000FFF761FC54212000FFF74AFA10BDDF
:1072A00038B504000D00D5F101012000FFF754FCB2
:1072B0002A0056212000FFF78AFA31BD38B50400B4
:1072C0000D00D5F101012000FFF746FC2A005821EE
:1072D0002000FFF77CFA31BD2DE9F04104000D00DC
:1072E0001600EDB2032D03D15FF00008002709E07E
:1072F000EDB2042D03D15FF00108012702E05FF039
:10730000000802275FF0FF31B1EB08012000FFF712
:1073100023FC18EB060057EA800257212000FFF7F4
:1073200056FABDE8F08138B504000D00691E200052
:10733000FFF712FC2A0059212000FFF748FA31BD5F
:1073400070B504000D00160071192000FFF704FC51
:1073500055EA06225A212000FFF739FA70BDF8B528
:1073600004000D0016001F0057EA0600002809D18E
:1073700001212000FFF7F0FB6A6960212000FFF780
:1073800078FA09E05FF0FF312000FFF7E5FB6A695A
:1073900061212000FFF76DFAF1BD2DE9F0410400F5
:1073A0000D0016001F00DDF8188058EA07000028BD
:1073B0000FD1D6F101012000FFF7CEFB6A696221EF
:1073C0002000FFF756FA3100C9B22000FFF7B1F9EB
:1073D00018E0B6F5807F07D34FF4637248494648FA
:1073E000FEF774FFAFF30080F1432000FFF7B4FB1A
:1073F0006A6963212000FFF73CFA3100C9B220001E
:10740000FFF797F9BDE8F0816438076057660060C0
:107410002DE9F84305000E0017009846DDF820908E
:10742000099C002C0FD0B6EB0801B1EB4901891E75
:107430002800FFF791FB58EA0922791CC9B22800FD
:10744000FFF7C5F90DE0B6EB0801B1EB49012800E3
:10745000FFF782FB58EA09223900C9B22800FFF77A
:10746000B6F9BDE8F183FEB504000D0016001F005B
:10747000019700962B00642200212000FFF7C8FF2F
:10748000F7BDFEB504000D0016001F000197009621
:107490002B0066225FF0FF312000FFF7B9FFF7BD38
:1074A00010B504005FF0FF312000FFF755FB01200D
:1074B000616860F3174161605B212000FFF739F9D3
:1074C00010BD38B504000D00032D07D34FF46B72C7
:1074D0000B490948FEF7FAFEAFF30080694220002D
:1074E000FFF73AFB2A00D2B25C212000FFF72AF90D
:1074F00031BD0000EF6600606438076044440760F7
:107500000CA3066010B5040000212000FFF724FB47
:10751000E068007E50F00400E16808765D212000FC
:10752000FFF707F910BD10B504005FF0FF31200030
:10753000FFF712FBE068007E50F00400E168087677
:107540005E212000FFF7F5F810BD10B504000421FE
:107550002000FFF7DEFA10BD10B504007FF0020135
:107560002000FFF7D6FA10BD10F00100704710F0B0
:10757000030F01D1012000E00020C0B2704740009D
:1075800050F00100704750EA011070470100DFF829
:10759000F806C9B2405CC9B2DFF8F0261268914221
:1075A00001D350F48070DFF8E82602EB400070470A
:1075B000F8B506000F00746A002C1FD020686168BF
:1075C000791888421AD200222168791808312000DF
:1075D00001F093F80500002D0DD1002261680831FB
:1075E000200001F08AF860682060306A60603462D0
:1075F0000020040002E0206838182060002C0CD124
:107600001025BD4200D23D0015F1080001F036F80A
:1076100004002560002060607462606820440830C7
:10762000616879186160F2BDF8B504000D001600BC
:107630001F0060682168884209D320681030C100AB
:10764000A06801F048F8A0602168103121606068EE
:10765000411C6160A16801EBC000016865F317017E
:107660000160F6B2016866F31F6101604760F1BD19
:1076700070B504000D0015F47040B0F5005F0ED039
:1076800015F47040B0F5405F09D04FF49972DFF8FF
:10769000D81BDFF8D80BFEF719FEAFF300802E05DC
:1076A000360D00233200D2B2A069816B2000FFF7B3
:1076B000BBFF70BD30B403005868401E5860986826
:1076C0005C6850F83400000E9C685D6804EBC504EB
:1076D00064680C609C685D6854F8354024F07F4411
:1076E0001460C0B230BC7047DE2803D030F0000018
:1076F000012801D1012000E00020C0B27047FE281F
:1077000004D0C10704D54010002801D0012000E0BA
:107710000020C0B2704770B504000D00E00707D527
:1077200020004010400050F001002860012022E0BD
:10773000002C1FD014F0030F1CD1207900F0FF00A3
:10774000372817D12600B06828602868FFF70CFF9B
:1077500000280AD12868FFF70AFF002807D0286808
:107760000068DFF80C1B884201D1012000E00020F6
:10777000C0B200E0002070BD10B4030018680028FB
:1077800003D100201060002014E0187810F0030FDF
:1077900002D0136001200DE01C68207900F0FF008A
:1077A000884202D01360012004E014F10800106048
:1077B0006068000A10BC704710B5040020690028FA
:1077C00009D140F2A912DFF8A01ADFF8A00AFEF7EB
:1077D0007DFDAFF300802069401E20616069216952
:1077E00050F8210010BD38B504000D002069854215
:1077F00009D34FF4D772DFF8701ADFF8700AFEF77A
:1078000065FDAFF3008060692169491E4D1B50F88A
:10781000250032BD38B504000D002069E1688842BA
:1078200009D3E06810308100606900F054FF6061A6
:10783000E1681031E1602069411C2161616941F812
:10784000205031BD70B504000D0016000C21200041
:10785000FFF7AEFE056040F237114160866070BDF3
:1078600070B504000D002E0076103000FFF787FE83
:1078700070BD2DE9F84305000E00AF6997F8400090
:1078800007280AD1B96CF86C00F0D0FD0400210083
:107890000220FFF778FE804670E097F84000082845
